:020000040800F2
:10000000A80A00205902000831210008B520000884
:100010002D210008FD170008792A000800000000C3
:100020000000000000000000000000000D23000898
:100030000118000800000000C12100082524000864
:1000400073020008730200087302000873020008BC
:1000500073020008730200087302000873020008AC
:10006000730200087302000873020008730200089C
:10007000730200087302000873020008730200088C
:10008000730200087302000873020008730200087C
:10009000730200087302000873020008730200086C
:1000A000730200087302000873020008730200085C
:1000B000912400087302000873020008730200080C
:1000C000730200087302000873020008730200083C
:1000D00073020008F1250008312600089D2600085B
:1000E000730200087302000873020008730200081C
:1000F000730200087302000873020008730200080C
:1001000073020008730200087302000873020008FB
:1001100073020008730200087302000873020008EB
:1001200073020008730200087302000873020008DB
:1001300073020008730200087302000873020008CB
:1001400073020008730200087302000873020008BB
:1001500073020008730200087302000873020008AB
:10016000730200087302000873020008730200089B
:10017000730200087302000873020008730200088B
:10018000730200087302000800F002F800F055F84E
:100190000AA090E8000C82448344AAF10107DA45E2
:1001A00001D100F04AF8AFF2090EBAE80F0013F0DF
:1001B000010F18BFFB1A43F001031847B8300000C5
:1001C000D8300000103A24BF78C878C1FAD8520756
:1001D00024BF30C830C144BF04680C6070470000C1
:1001E0000023002400250026103A28BF78C1FBD840
:1001F000520728BF30C148BF0B607047662902F024
:10020000AF87642900F09C80732900F0BA84002035
:1002100070471FB502F09FFF00F014FA04000020A1
:10022000002102F0F5FE401C60600020002102F079
:1002300005FFE0601FBD10B510BD00F0DBFE1146EC
:10024000FFF7E7FF02F05EFD00F007FF03B4FFF7E2
:10025000F2FF03BC02F031FC09488047094800471F
:10026000FEE7FEE7FEE7FEE7FEE7FEE7FEE7FEE766
:10027000FEE7FEE704480549054A064B70470000C3
:100280002924000889010008A8040020A80A0020E9
:10029000A8060020A80600207047000010B500F056
:1002A000D1F9001D10BD00BF692D00000FB4044935
:1002B00010B503AA029800F069FC10BC5DF814FBAD
:1002C0001C0000200FB41CB5074B06AA7B446946EE
:1002D0000090059800F02BFC0020694600F03AFCE5
:1002E0001CBC5DF814FB00008508000070B50C46CE
:1002F0000546012A05D02878800600D5EA69002342
:1003000002E0012305E05B1C934202D2E05C00287E
:10031000F9D1A869E618C01AA861286A18442862A9
:100320002846AFF3008004E0D5E9012114F8010B61
:100330009047B442F8D32846AFF3008070BD000068
:100340002DE9F0410646002410687529314616A5AE
:1003500010D0AFF30080002802DA404213A507E076
:1003600031688A0701D512A502E0490704D511A515
:10037000012401E0AFF3008000210A2206F12407E6
:1003800009E0B0FBF2FCB0FBF2F302FB1C003030E2
:1003900078541846491C0028F3D123462A46304693
:1003A000BDE8F04100F056B9000000002D0000004B
:1003B0002B000000200000002DE9F0474FF0000A5C
:1003C00089460446C0F820A02046E16888470028F6
:1003D00076D0252806D0D4E901219047206A401C18
:1003E0002062F1E7E168204600258847C4F81CA098
:1003F00006460027C4F818A02A2E09D0304602F07D
:1004000055FB38B304EB8708303EC8F8186019E094
:1004100059F8041B204604EB87029161E168884784
:10042000012F064618D1E069002820DA25F02005C2
:100430001DE0D8F8180000EB800006EB40003038D3
:10044000C8F818002046E1688847064602F02EFBEF
:100450000028EED1012F0AD02E2E08D12046E168C7
:1004600088477F1C0646022F45F02005C4DBA069A3
:10047000002803DA404245F00105A061E80701D0F9
:1004800025F01005B6B1A6F14100192802D8203692
:1004900045F400654A463146204625604D46FFF743
:1004A000ADFE58B1012806D0ED1D25F0070000F182
:1004B000080989E704E005F1040985E730468AE781
:1004C000206ABDE8F08770B5064600F0BFF8046802
:1004D000054630460A22002100F06AFB2C6070BD00
:1004E000401ECAB210F8011F8A4202D00029F9D179
:1004F0000020704730B505460B462A4613F8014BDD
:1005000012F8010B08B1A042F8D01CB1002802D0AB
:100510006D1CF1E7284630BD0022CBB210F8011B5C
:10052000994200D1421E0029F8D11046704710B5FB
:10053000431C02E010F8011B71B18107FAD14FF0A2
:10054000013202C88C1A8C4314EAC211F9D0C01AC5
:100550000A0603D0C01E10BDC01A10BD0A0401D087
:10056000801E10BD0902FCD0401E10BD032A40F2BF
:10057000308010F0030C00F0158011F8013BBCF145
:10058000020F624498BF11F801CB00F8013B38BF5D
:1005900011F8013BA2F1040298BF00F801CB38BF6B
:1005A00000F8013B11F0030300F03A83083AC0F071
:1005B000088051F8043B083A51F804CBA0E8081031
:1005C000F5E7121D5CBF51F8043B40F8043BAFF364
:1005D0000080D20724BF11F8013B11F801CB48BFBE
:1005E00011F8012B24BF00F8013B00F801CB48BFF4
:1005F00000F8012B70474FF000020429C0F0128070
:1006000010F0030C00F04083CCF1040CBCF1020F9D
:1006100018BF00F8012BA8BF20F8022BA1EB0C019A
:1006200000F032BB5FEAC17C24BF00F8012B00F868
:10063000012B48BF00F8012B704770477047704787
:100640007047000000487047680400200048704769
:10065000480400202DE9F0470D469946924604468D
:1006600000F124080168880604D5E06921F0100132
:10067000216000E00120A84201DD471B00E00027C7
:10068000A1697A1902EB0900081AA0612078C00656
:1006900002D42046AFF30080002608E0D4E901210F
:1006A0001AF806009047206A401C761C20624E45CE
:1006B000F4DB2078C0060AD52046AFF3008006E0C0
:1006C000D4E9012130209047206A401C2062381E66
:1006D000A7F10107F4DC07E0D4E9012118F80500CF
:1006E0009047206A401C2062281EA5F10105F3DC1A
:1006F0002046AFF300802078000602D50220BDE836
:10070000F0870120FBE770472DE9FF4F0C461E469E
:100710004FF0FF378BB0D2E90001DDF860800A901E
:100720008A46C1F30A5505B93D46002108464FF0F7
:100730000000BAF1000F00F4400005DA00EB800081
:100740004FF4400101EA50004FEA9059B9F1010F0E
:1007500000DDB9460A9850EA4A000ED044F610501F
:10076000A5F2FF3545432F14B8F1000F1ED0754296
:10077000291E1EDDC9F100021CE0B8F1010F4FF087
:10078000000001D0302103E0F24305E02154401C79
:10079000B042FBDB30460022002121540B99C1F806
:1007A0000880C1E900200FB0BDE8F08FBD1B6D1CB3
:1007B000DEE74A4600DA694206A800F065FB06ABB0
:1007C00093E8070003AB83E8070050460A9900F05E
:1007D0004DFC8DE80700A0F500501F3800900398ED
:1007E000002D0ADD42F21F014A460844002303A9F6
:1007F0000390684600F0B6FE09E0A0F500504A46B6
:100800001F38002303A90390684600F0C0FE8DE85E
:1008100007000004000C03D04FF0FF30410800E057
:100820001046B8F1000F03D00022009215461EE0DA
:10083000751E05D400F052FA303262556D1EF9D59E
:10084000B3460122084302D000227F1C04E0207836
:10085000302801D100227F1E002A099784D01DE094
:10086000112D07DA00F03AFA303262556D1C50EA69
:100870000102F5D1084302D00098C8B10EE0002172
:10088000681E05E0235C625C63542254401E491CD0
:100890008142F7DBAB46A81B401E0990002004F8FC
:1008A0000B000B98099AC0F80880C0E9002B7AE782
:1008B00011264FF0000857E72DE9F04F884604460F
:1008C000D21D22F0070191B0D1E90001CDE90A0162
:1008D00002F0D4F802460B98C00F01D02D2007E09B
:1008E0002068810701D52B2002E0202101EAC00009
:1008F000032A099001D0072A05DB0346414620461A
:1009000000F032FA0BE12078800601D5E06900E0C2
:100910000620B8F1650F814606D0B8F1660F18D0F1
:10092000B8F1670F70D131E00020B9F1110F0090DC
:1009300001DB112301E009F101030AAA01A90CA8B6
:10094000FFF7E2FEDDE90C70002609F101058346A0
:1009500047E001204B4600904FF000470AAA01A94A
:100960000CA8FFF7D1FEDDE90DB00C995D4600261D
:1009700010B909F101000D18B9EB050003D4C0F15D
:10098000FF3609F10105A5EB09002BE0B9F1010FD4
:1009900001DA4FF001090020B9F1110F009048462B
:1009A00001DD112300E003460AAA01A90CA8FFF704
:1009B000ABFEDDE90C704D4600268346207800072B
:1009C0000AD4AB4500DA5D4601A8012D04DD4119CA
:1009D00011F8011C302907D04F4502DA17F1040F36
:1009E00004DA012082460FE06D1EEEE7002F02DCE4
:1009F000ED1B3E4403E0781CA84200DD7D1CB81BC3
:100A000000F1010A4FF000472078000703D4AA45FF
:100A100001DB4FF0FF3A0021B7F1004F0DF1430821
:100A20008DF8431024D002202B23002F01DA7F42BF
:100A30002D230A21021EA0F1010000DC5FB197FB0B
:100A4000F1FC97FBF1F201FB1C7C17460CF1300C1A
:100A500008F801CDEEE7A8F101000370218809052F
:100A600001D5452100E06521A0F1010800F8011C35
:100A700009980FA9A1EB0807FF1D00B1012041193A
:100A800001EBEA70A1693844081A401EA061207881
:100A9000C00602D42046AFF30080099828B1D4E9FB
:100AA00001219047206A401C20622078C00622D590
:100AB0002046AFF300801EE0002E04DBB34502DDCC
:100AC00001A8805D00E03020D4E901219047206A30
:100AD000401C2062761CAAF101005FEA000A0AD1DC
:100AE000FFF7B0FDC0680168405CD4E90121904780
:100AF000206A401C2062281EA5F10105DCDC07E00D
:100B0000D4E9012118F8010B9047206A401C2062AB
:100B1000381EA7F10107F3DC2046AFF30080032065
:100B200011B041E601694A1C02610878704700B5BE
:100B30008FB0CDE901310021059105497944CDE916
:100B4000031011466846FFF737FC0FB000BD0000E8
:100B5000E5FFFFFF0A6802F8010B0A60704710B555
:100B6000436913B1AFF3008001E0FFF7BFFB012041
:100B700010BD127800F124010A7000224A7001228F
:100B8000EDE711684FF0FF32E9E70000074B70B561
:100B90000D467B44FFF7CBFF0446284600F0E6F9FC
:100BA00010B14FF0FF3070BD204670BDA72000008F
:100BB0002DE9F04791460F4680460446002614F87A
:100BC000015B2DB1FFF76AFB0068405DC007F6D1FD
:100BD0002B2D02D02D2D18D0641E4A4639462046B2
:100BE00000F002F927B13968A14201D1C7F80080AD
:100BF0004FF0020471050BD54042002803DDFFF7DA
:100C000025FD0460A007BDE8F08746F48066E4E7B0
:100C10000028F8DAFFF71AFD04606FF00040F2E7F1
:100C200010B5203AC0F00B80B1E81850203AA0E887
:100C30001850B1E81850A0E81850BFF4F5AF5FEABB
:100C4000027C24BFB1E81850A0E8185044BF18C96E
:100C500018C0BDE810405FEA827C24BF51F8043B15
:100C600040F8043B08BF7047D20728BF31F8023B69
:100C700048BF11F8012B28BF20F8023B48BF00F8FD
:100C8000012B70474FF0000200B51346944696467C
:100C9000203922BFA0E80C50A0E80C50B1F120018F
:100CA000BFF4F7AF090728BFA0E80C5048BF0CC03D
:100CB0005DF804EB890028BF40F8042B08BF70479B
:100CC00048BF20F8022B11F0804F18BF00F8012B0D
:100CD00070470000004870474804002030B5B0F16C
:100CE0000A024FEA900E71F100034EEA817EB0EBEA
:100CF0000E0061EB91014FEA101E4EEA017E10EBEF
:100D00000E0041EB11114FEA102E4EEA016E10EB6E
:100D10000E0041EB11214FEA104E4EEA014E10EB4E
:100D20000E0041EB1141401841F100014FEAD000A3
:100D300040EA41704FEAD10110EB80054FEA81048F
:100D400044EA907444EB01046D1944EB0404521B13
:100D5000A3414FF0000348BF0A3200D530BD401C0C
:100D600041F1000130BD00002DE9F0411F4604466D
:100D700003260168072A01F4006004DB08B116A508
:100D800005E016A503E008B115A500E015A521F0C2
:100D900010002060A069C01EA0610FB1401EA061BC
:100DA0002046AFF300804FB1D4E901213846904787
:100DB000206A401C2062C01C206206E0206AFAE71C
:100DC000D4E9012115F8010B9047761EF8D2204690
:100DD000AFF30080BDE8F0814E414E006E616E00C1
:100DE000494E4600696E66002DE9F05F8246154661
:100DF0008B4600270AF10104B9460078302801D05B
:100E00009DB113E014F8010B0127782803D058286E
:100E100001D045B10AE00DB1102D07D1002714F81B
:100E2000010B102502E0082500E00A250026B04647
:100E30000EE005FB080005FB06F101271FFA80F80C
:100E400001EB1046B6F5803F00D3B94614F8010B0C
:100E5000294600F0F4F80028EBDABBF1000F05D0CA
:100E60000FB1641E00E05446CBF80040B9F1000F0A
:100E700006D0FFF7EBFB02210160C81EBDE8F09F22
:100E800048EA0640FAE700002DE9F0478146164699
:100E90008AB0354878440DC88DE80D003248784452
:100EA000801C03AC0DC884E80D0041F69B3008445B
:100EB000372190FBF1F290FBF1F5A5F1800501FBE4
:100EC00012041B3C02D56442012000E00020DFF840
:100ED00098A080460027FA44AAF1BE0A0EE0E00777
:100EE0000AD03246684607EB470101230AEB81012D
:100EF00000F04DFB8DE8070064107F1C002CEED144
:100F0000194F7F44AE3F19E0E80715D007EB0410F6
:100F10000DF1180A90E80E008AE80E00C068F04251
:100F200001D1981908903246012306A903A800F0C0
:100F30002EFB03AB83E807006D10641C002DE3D18A
:100F40004FF0010332466946B8F1000F03A802D002
:100F500000F008FB01E000F01AFBC9E90001C9F844
:100F600008200AB0BDE8F08748230000007B00F0AD
:100F7000800070474FF0013C50F8042B51F8043BBF
:100F80009A4221D1A2EB0C03934313EACC1317D15D
:100F900050F8042B51F8043B9A4215D1A2EB0C03F4
:100FA000934313EACC130BD150F8042B51F8043BB4
:100FB0009A4209D1A2EB0C03934313EACC13DBD082
:100FC0004FF00000704700BFD01A01BAB1FA81F1AA
:100FD00001F0180122FA01F0CB40C1F12001DBB28F
:100FE000C0B2C01A2CFA01F3D11A914311EAC3110D
:100FF000E6D170477546FFF76DFEAE4605006946BF
:10100000534620F00700854618B020B5FFF732F9A7
:10101000BDE820404FF000064FF000074FF00008F9
:101020004FF0000B21F00701AC46ACE8C009ACE87A
:10103000C009ACE8C009ACE8C0098D4670473A2841
:1010400000D2303820F02002412A01D3A2F137002B
:10105000884201D34FF0FF30704710B50446AFF31C
:1010600000802046BDE81040FFF7F0B85FEA400C72
:1010700008BF91F0000F4FEA8C234FEAC12243EAE8
:1010800051514FEA1C5018BF00F5F0404FEA3000B4
:1010900018BF41F000415FEA6C5C00F02980BCF1B0
:1010A000FF3F08BF40F080407047130C06BF12049A
:1010B0004FF0100C4FF0000C130E04BF12020CF195
:1010C000080C130F04BF12010CF1040C930F04BFA2
:1010D00092000CF1020CD30F04BF52000CF1010C72
:1010E00011464FF00002A0F11F00A0EB0C0070476A
:1010F00011F0004F08BF704731F000413FF4D5AF09
:101100000B0C06BF09044FF0100C4FF0000C0B0E37
:1011100004BF09020CF1080C0B0F04BF09010CF10C
:10112000040C8B0F04BF89000CF1020CCB0F04BF21
:1011300049000CF1010CCCF12003A0EB0C0022FAC9
:1011400003F302FA0CF241EA030100F101007047D7
:1011500020F07F4C80EA030023F07F47ACEB0703CD
:1011600003F57C5300F0004003F1FF032DE98049B3
:101170004FEA154B09B44FEA144325EA0B4E24EA13
:1011800003480FF2042606EB132749083E785FEA6E
:10119000320203FB0667C7F5000707FB06F64FEAB6
:1011A00054374FEAD64606F1020607FB066CCCF12F
:1011B000005C4FEA1C472CEA074C07FB06F40CFBCB
:1011C00006F504EB15464FEA961634BF00204FF0A3
:1011D00000404FEAD13706FB07FC4FEA1C4C0CFBE2
:1011E0000BF7D21B03FB0CF761EB07010CFB0EF7AF
:1011F000B0EB074072EB17420CFB08F734BFA2EBD1
:101200000742B2EB074261EB17414FEA0C444FEA49
:10121000910706FB07FC4FEA1C4C0CFB0BF7B0EBED
:10122000C74072EB573203FB0CF734BFA2EBC74247
:10123000B2EBC74261EB57310CFB0EF7B0EBC700C6
:1012400072EB57720CFB08F734BFA2EBC702B2EB8C
:10125000C70261EB5771039F4FEA816141EA921126
:1012600004EBCC044FEAD1374FEA826206FB07FC5D
:1012700042EA90124FEA80604FEA1C4C0CFB0BF7DD
:10128000D21B03FB0CF761EB07010CFB0EF7B0EB75
:10129000074072EB17420CFB08F734BFA2EB074282
:1012A000B2EB074261EB17414FEA8C554FEA9107C9
:1012B00004EB9C2406FB07FC4FEA1C4C0CFB0BF7D1
:1012C000B0EBC74072EB573203FB0CF734BFA2EB15
:1012D000C742B2EBC74261EB57310CFB0EF7B0EBE4
:1012E000C70072EB57720CFB08F734BFA2EBC702C2
:1012F000B2EBC70261EB577115EB4C254FEA8161E8
:1013000041EA92114FEA82624FEAD13742EA9012E3
:1013100006FB07FC44F100044FEA80604FEA1C4CD6
:101320000CFB0BF7D21B03FB0CF761EB07010CFB6B
:101330000EF7B0EB074072EB17420CFB08F734BF17
:10134000A2EB0742B2EB074261EB174115EB1C150C
:101350004FEA813141EA92414FEA823242EA9042B9
:101360004FEA80304FEA0C7644F1000448EA034328
:101370004EEA0B484FF0000EB2EB080C71EB03077E
:1013800024BF624639464EEB0E0E4FF0000B00189C
:10139000524149414BEB0B0BB2EB080C71EB0307CD
:1013A0007BF1000B24BF624639464EEB0E0E4FF028
:1013B000000B0018524149414BEB0B0BB2EB080CF0
:1013C00071EB03077BF1000B24BF624639464EEBFD
:1013D0000E0E51EA020718BF46F0010616EB0E7614
:1013E00055F1000254F1000103D5BDE88901BDE8C3
:1013F0000088BDE88901BDE80048B619524141EBBB
:101400000101A3F10103704780807F7E7D7C7B7AA0
:101410007978777676757473727171706F6E6E6DA0
:101420006C6C6B6A6A696868676666656464636346
:1014300062616160605F5F5E5E5D5D5C5C5B5B5ACC
:101440005A59595858575756565555555454535339
:1014500052525251515050504F4F4F4E4E4D4D4D94
:101460004C4C4C4B4B4B4A4A4A49494948484847DF
:10147000474747464646454545444444444343431D
:101480004342424242414141002B9C4630D47700C6
:101490002BD01CB54FEA370703B44FF010004FF0C4
:1014A0001001BAF1000F06D0BCF1000FDCBF40F014
:1014B000080040F008014FF000000FBCBDE81040EC
:1014C0000BF1010BBBF1010F08BF5FEA170722BF49
:1014D00012F1010211F101014FF0004143F100034B
:1014E00000F0004043EA00007047F9D35708D0E706
:1014F00046EA064613F1400F4FEA16461FDD13F188
:10150000200FDFBF16430A46002120335B42BED0C6
:10151000C3F1200746EA064602FA07F74FEA1646E5
:1015200046EA0706C3F1200722FA03F201FA07F799
:1015300021FA03F14FF0000342EA0702A7E746EA67
:10154000020646EA06464FEA164646EA0106BCBFD0
:1015500046EA0646360C4FF000034FF000024FF00B
:10156000000194E72DE9804C9A46934670B491E8C7
:10157000380007C831EA400C48BF34EA430C03D5B1
:10158000FFF7E6FDFFF780FFF0BCBDE8008C2DE91A
:10159000804C9A46934670B491E8380007C810F022
:1015A000804F08BF13F0804F03D100F005F8FFF71C
:1015B0006BFFF0BCBDE8008C20F07F4780EA0300A1
:1015C00023F07F4C07EB0C03A3F57C5300F00040A5
:1015D000A3F1FE0392F0000F00F0B38095F0000F2E
:1015E00000F077802DE901494FEA11404FEA144697
:1015F00021EA004800FB06FC24EA064708FB06F641
:1016000007FB08F800FB07F718EB06484CEB164CF5
:101610004FEA124B18EB07484FEA15464CEB1740C0
:1016200022EA0B4E0BFB06FC25EA06470EFB06F6EC
:1016300007FB0EFE0BFB07F71EEB064E4CEB164CA2
:101640004FF000061EEB074E4CEB174B18EB0B0848
:1016500040F1000018EB0E0B58EB000840F10000C1
:101660008F1A4FF000013CBFC943661B14BFB5EB96
:10167000040C00213CBFC943F61B4FEA17444EEA55
:101680008E0E27EA04454FEA1C4704FB07622CEA4A
:10169000074C05FB07F70CFB05F604FB0CFC16EBEF
:1016A000074642EB174216EB0C4642EB1C421BEB83
:1016B000060658EB0202414146EA9E0601D5BDE806
:1016C0000189B619524141EB0101A3F10103BDE8C3
:1016D00001894FEA14454FEA114724EA054621EAF9
:1016E000074C05FB07F406FB07F70CFB06F105FBAF
:1016F0000CFC11EB074144EB17444FEA124711EB86
:101700000C4144EB1C4422EA074C05FB07F206FBA4
:1017100007F70CFB06F605FB0CFC16EB074642EB45
:10172000174216EB0C4642EB1C456A1854F10001B7
:1017300048BF7047B619524141EB0101A3F10103C3
:10174000704795F0000F37D04FEA11424FEA144727
:1017500021EA024624EA074C02FB07F106FB07F7E1
:101760000CFB06F402FB0CFC14EB074441EB1741A5
:101770004FEA154714EB0C4441EB1C4125EA074C9A
:1017800002FB07F506FB07F70CFB06F602FB0CFC59
:1017900016EB074645EB174516EB0C4645EB1C428E
:1017A000121951F1000148BF7047B619524141EB7F
:1017B0000101A3F1010370474FEA14454FEA1147B5
:1017C00024EA054621EA074C05FB07F106FB07F76B
:1017D0000CFB06F24FF0000605FB0CFC12EB074277
:1017E00041EB174112EB0C4251EB1C4148BF7047D3
:1017F000921841EB0101A3F10103704700BFFEE71E
:101800007047000010B514A0FEF750FD184A19A14A
:101810001BA000F0A9F840F6B83001F06FF900F015
:1018200077F84FF47A7001F069F915A111A000F072
:10183000F9F84FF47A7001F061F911A10DA000F0F0
:1018400023F904464FF47A7001F058F90DA0FEF721
:101850002DFD204610BD0000E5BC80E5A78BE8BF4C
:101860009EE68EA54F6E656E65740D0A0000000041
:10187000F83100083332436955423952713400005F
:1018800034303700E5B7B2E8BF9EE68EA5E588B0F4
:101890004F6E656E65740D0A0000000010B50DA056
:1018A000FEF704FD00F038FA002000F0CDFA00BF8A
:1018B0000DA110A000F094FA0028F9D0642001F0E6
:1018C0001DF900F04FFA022802D10CA0FEF7EEFC41
:1018D00010BD0000E5BC80E5A78BE8BF9EE68EA5A5
:1018E000776966690D0A000031323334353637388E
:1018F000000000007465737400000000E5B7B2E7F3
:10190000BB8FE8BF9EE68EA5776966690D0A000069
:1019100010B5A0B0002408A16846FEF7D3FC4FF430
:10192000FA6300220FA1684600F0CAFA10B1012044
:1019300020B010BD0020FBE741542B4D51545443BF
:101940004F4E4E3D302C226D717474732E6865635A
:101950006C6F7564732E636F6D222C313838332CA5
:10196000310000004F4B0000F0B5C1B004460D46F9
:1019700016461CA101A8FEF7A5FC4FF4FA7300223D
:101980001CA101A800F09CFA41F2883001F0B6F8E1
:10199000002722E02B46224617A101A80096FEF759
:1019A00091FC4FF4FA73002212A101A800F088FA0A
:1019B00010B1012041B0F0BD0AA101A8FEF782FCE0
:1019C0004FF4FA7300220BA101A800F079FA40F657
:1019D000B83001F093F8781CC7B2642FDADB00202E
:1019E000E8E7000041542B4D515454434C45414EBF
:1019F0003D3000004F4B000041542B4D5154545585
:101A00005345524346473D302C312C222573222C1E
:101A1000222573222C222573222C302C302C2222BA
:101A20000000000030B5C1B004460D462B462246EA
:101A300006A101A8FEF746FC4FF4FA73002211A19B
:101A400001A800F03DFA41B030BD000041542B4DDB
:101A50005154545355423D302C22247379732F2511
:101A6000732F25732F7468696E672F70726F70659E
:101A70007274792F706F73742F7265706C79222C69
:101A8000310000004F4B000030B5C1B004460D4698
:101A90002B46224606A101A8FEF714FC4FF4FA7368
:101AA00000220FA101A800F00BFA41B030BD0000E8
:101AB00041542B4D5154545355423D302C222473E4
:101AC00079732F25732F25732F7468696E672F70B4
:101AD000726F70657274792F736574222C310000F7
:101AE0004F4B000070B5C2B004460D4616462B465B
:101AF00022460BA102A80096FEF7E4FB4FF4FA730E
:101B0000002215A102A800F0DBF914A11448FEF789
:101B1000F1FC10B1012042B070BD0020FBE70000D5
:101B200041542B4D5154545055425241573D302C45
:101B300022247379732F25732F25732F7468696E90
:101B4000672F70726F70657274792F706F73742263
:101B50002C25642C312C30004F4B00003E0000003F
:101B60004500002010B52DED028B0446B0EE408AF2
:101B7000B0EE480A204600F06FF8642000F0BEFF87
:101B8000B0EE480A204600F067F8BDEC028B10BDAD
:101B900070B505460C46A1B2284600F009F864204D
:101BA00000F0ACFFA1B2284600F002F870BD0000C2
:101BB00070B590B004460D462B46224612A16846E9
:101BC000FEF780FB6846FEF7B2FCC6B2324619A1AA
:101BD00019A0FFF787FF4FF4FA7000F08FFF19A1EB
:101BE0001948FEF787FC20B16A4618A1184800F092
:101BF000C0FE18A11448FEF77DFC10B1012010B002
:101C000070BD0020FBE700007B226964223A22318C
:101C10003233222C22706172616D73223A7B22254D
:101C200073223A7B2276616C7565223A25647D7D4C
:101C30007D00000034303700333243695542395259
:101C4000713400003E0000004500002025730000B4
:101C5000004400404F4B000030B52DED048B93B095
:101C60000446B0EE408A18EE100A01F003FA41EC87
:101C7000190B8DED009B224613A103A8FEF722FB52
:101C800003A8FEF754FCC5B22A461AA11AA0FFF712
:101C900029FF4FF4FA7000F031FF1AA11A48FEF73D
:101CA00029FC20B103AA19A1194800F062FE19A16C
:101CB0001548FEF71FFC20B1012013B0BDEC048BCA
:101CC00030BD0020F9E700007B226964223A22310E
:101CD0003233222C22706172616D73223A7B22258D
:101CE00073223A7B2276616C7565223A252E326624
:101CF0007D7D7D003430370033324369554239529F
:101D0000713400003E0000004500002025730000F3
:101D1000004400404F4B000010B500244FF47A708F
:101D200000F0ECFE0DE04FF4FA73002207A108A0CA
:101D300000F0C6F818B109A0FEF7B8FA10BD601C93
:101D4000C4B20A2CEFDB00BFF8E700004F4B0000E5
:101D500041542B524553544F524500004F4B0D0AEE
:101D60000000000010B54FF4FA7300220DA10EA080
:101D700000F0A6F8A0B110A11248FEF7BBFB08B115
:101D8000022010BD10A10F48FEF7B4FB08B10320DC
:101D9000F7E710A10B48FEF7ADFB08B10420F0E710
:101DA0000020EEE74F4B000041542B434950535461
:101DB00041545553000000005354415455533A3296
:101DC0000D0A0000450000205354415455533A3346
:101DD0000D0A00005354415455533A340D0A000083
:101DE00030B59FB004460D460EA101A8FEF76AFA71
:101DF0004FF47A730022114601A800F061F840F612
:101E0000C41000F07BFE2B46224609A101A8FEF774
:101E100059FA41F2883300220AA101A800F050F8D3
:101E20001FB030BD41542B435751415000000000BA
:101E300041542B43574A41503D222573222C2225E1
:101E4000732200004F4B000010B5044624B1012C52
:101E50000AD0022C18D10FE040F6C4130BA20EA139
:101E60000EA000F02DF810BD40F6C41307A20AA181
:101E70000DA000F025F8F6E740F6C41303A206A172
:101E80000CA000F01DF8EEE70020ECE76E6F206379
:101E900068616E67650000004F4B000041542B43A2
:101EA000574D4F44453D310041542B43574D4F440E
:101EB000453D320041542B43574D4F44453D33007F
:101EC0002DE9F04106460C4615461F4600202349E1
:101ED0000880324622A1244800F04BFD1CB915B9F8
:101EE0000120BDE8F081B8B200F008FE4FF47A702E
:101EF00000F004FE00201D49184A128888541CA0D6
:101F0000FEF7D4F9B4B1ADB121461848FEF7F2FAA4
:101F100008B1012000E0002040B929461348FEF72F
:101F2000E9FA08B1012000E0002008B10120D8E75B
:101F30000020D6E744B121460C48FEF7DBFA08B191
:101F40000120CEE70020CCE729460848FEF7D2FA68
:101F500008B10120C5E70020C3E7000022000020EF
:101F600025730D0A000000000044004045000020D9
:101F70002573000010B50E490EA0FEF797F90EA1CB
:101F80000B48FEF7B7FA28B1094800F0F9FD84B212
:101F9000204610BDC82000F0B1FD4FF48061044818
:101FA000FEF729FB00200749088000BFF1E7000089
:101FB00045000020257300006169725F6D6F6465E4
:101FC0000000000022000020F0B50A460021002396
:101FD000002400BF3DE0012505FA01F3156805EA7C
:101FE00003049C4234D105684F000326BE40B5432C
:101FF000056015794E00B5400668354305601579D2
:10200000012D02D01579022D16D185684F000326C7
:10201000BE40B543856055794E00B540866835436E
:102020008560456801268E40B543456045689679D0
:102030008E40B6B235434560C5684F000326BE40AA
:10204000B543C560D5794E00B540C6683543C56017
:10205000491C1029BFD3F0BDF0B5002300244D0763
:10206000ED0E02FA05F3CE1000F1200555F82650CA
:102070004E07F70E0F26BE40B543CF1000F12006E5
:1020800046F82750CE1000F1200555F8265045EAB5
:102090000304CE1000F1200545F82640F0BD018371
:1020A000704742694A40426170470AB1018300E0CB
:1020B0004183704700BFFEE710B504462CB90122EA
:1020C00051020648FFF7F1FF06E0012C04D101227E
:1020D00091020248FFF7E9FF10BD00000014024022
:1020E00010B5044634B900224FF400710548FFF7DB
:1020F000DCFF06E0012C04D10022A1020148FFF719
:10210000D4FF10BD0014024010B504462CB94FF4A2
:1021100000710548FFF7C5FF05E0012C03D1A102BE
:102120000148FFF7BEFF10BD0014024000BFFEE7EC
:102130007047000070B5002100230F22C4781CB343
:10214000174C246804F4E064C4F5E064C4F3072188
:10215000C1F10404E3B20A4144789C40E1B28478BE
:10216000144021430C07210E0E4C0578615504786C
:1021700004F01F050124AC4005786D11AD0005F198
:10218000E025C5F8004109E0047804F01F050124AA
:10219000AC40054D0678761145F8264070BD00002C
:1021A0000CED00E000E400E080E100E002490143C2
:1021B000024A1160704700000000FA050CED00E0D3
:1021C0007047000029B1064A12680243044B1A60A6
:1021D00004E0034A12688243014B1A607047000012
:1021E0003038024029B1064A12680243044B1A6093
:1021F00004E0034A12688243014B1A6070470000F2
:102200004038024029B1064A12680243044B1A6062
:1022100004E0034A12688243014B1A6070470000D1
:1022200044380240F0B50021002200240225002697
:102230000223324F3F6807F00C0121B1042905D079
:10224000082937D105E02E4F076036E02D4F076093
:1022500033E02A4F3F1F3F68C7F38056274F3F1F89
:102260003F6807F03F036EB1264FB7FBF3F7DFF887
:102270008CC0ACF1040CDCF800C0CCF3881C07FB6C
:102280000CF40CE01E4FB7FBF3F7DFF870C0ACF1B5
:10229000040CDCF800C0CCF3881C07FB0CF4174FCF
:1022A0003F1F3F68C7F301477F1C7D00B4FBF5F774
:1022B000076002E0124F076000BF00BF0F4F3F688A
:1022C00007F0F0010909104F7A5C0768D7404760B2
:1022D0000A4F3F6807F4E051890A0B4F7A5C476860
:1022E000D7408760054F3F6807F46041490B064FB0
:1022F0007A5C4768D740C760F0BD000008380240EC
:102300000024F40000127A00000000207047000052
:102310000CB50020019000903448006840F48030F3
:102320003249086000BF3148006800F40030009076
:102330000198401C0190009818B90198B0F5A04F81
:10234000F1D12A48006800F4003010B1012000905B
:1023500001E0002000900098012846D12348403039
:10236000006840F0805021494031086020480068F2
:1023700040F440401E4908601C48083000681B4972
:10238000083108600846006840F4004008600846CC
:10239000006840F4A05008601648091F0860081F34
:1023A000006840F08070091F086000BF0F48006897
:1023B00000F000700028F9D040F205700E49086066
:1023C0000A480830006820F0030008490831086016
:1023D0000846006840F00200086000BF034808306B
:1023E000006800F00C000828F8D10CBD003802404D
:1023F0000070004008544007003C0240042808D107
:102400004FF0E021096941F004014FF0E022116131
:1024100007E04FF0E021096921F004014FF0E022CC
:10242000116170477047000010B51548006840F40E
:102430007000134908601348006840F0010011491A
:10244000086000200F49083108600E4800680E49F6
:1024500008400C4908600D48091D0860081F006805
:1024600020F48020091F0860002006490C31086014
:10247000FFF74EFF4FF0006001498039086010BD42
:1024800088ED00E000380240FFFFF6FE1030002427
:1024900010B50121880700F01EF8012804D1054875
:1024A0000088401C034908800121880700F004F8D7
:1024B00010BD000028000020CA430282704721B1ED
:1024C000028842F00102028004E002884FF6FE73A7
:1024D0001A400280704730B50246002000230024D5
:1024E000158A05EA0103958905EA010413B10CB1C7
:1024F000012000E0002030BD1AB183890B438381A5
:1025000002E083898B4383817047000000220288A8
:10251000184B98420ED0184B98420BD0B0F1804F18
:1025200008D0164B984205D0154B984202D0154B57
:10253000984204D14FF68F731A404B881A43124BBE
:10254000984207D0114B984204D04FF6FF431A40EF
:102550000B891A4302804B68C3620B880385054BC5
:10256000984202D0044B984201D18B7A0386012312
:1025700083827047000001400004014000040040D5
:1025800000080040000C0040001000400014004013
:102590001FB501210846FFF725FE41F61F40ADF8A3
:1025A00004000020ADF8060042F20F7002900020F7
:1025B000ADF80C0001A94FF08040FFF7A7FF012202
:1025C00011469007FFF798FF01218807FFF777FF73
:1025D0001C208DF8000003208DF8010000208DF8EC
:1025E000020001208DF803006846FFF7A3FD1FBD20
:1025F00010B540F225510B4800F0F8F888B10948B1
:1026000000F0AEF9C4B20848008840F2FF318842B9
:1026100007DA054801880088401C034A10800348F7
:10262000445410BD0010014022000020450000204D
:1026300010B540F22551144800F0D8F8A8B112485E
:1026400000F08EF9C4B22146104800F08EF910480F
:10265000008840F2FF31884207DA0D48018800887F
:10266000401C0B4A10800B48445440F22441064859
:1026700000F0BCF8012805D107490880024800F0A5
:102680006FF9C4B210BD00000044004000100140CA
:1026900022000020450000202400002010B540F258
:1026A0002551374800F0A2F8002867D0344800F0E0
:1026B00057F9C4B233480078092854D2DFE800F053
:1026C000050D191A1B1C1D1E1F00AA2C04D12E4813
:1026D000047001202B49087049E0552C05D12A4887
:1026E000447002202749087002E000202549087044
:1026F0003DE000BF00BF00BF00BF00BF00BF2248D9
:102700002049097844541F480078082825D11E48DC
:102710000078AA281DD11C484078552819D11A499B
:1027200089781A4A11701849C978194A11701649DE
:102730000979184A117018481349497901701249EA
:10274000897941701049C97981700F49097AC1703E
:1027500000BF00200B49087004E00A480078401CC4
:102760000849087003E000200649087000BF00BF58
:1027700040F22551024800F011F800BF10BD0000E2
:1027800000480040200000203C00002014000020F1
:1027900015000020160000201800002010B50022AF
:1027A000002340F66A14A14200D100BF0A1201249E
:1027B0009440A3B2DC43048010BD21B1828942F46D
:1027C0000052828104E082894DF6FF731A408281B3
:1027D000704702460020B1F5007F00D100BF13888A
:1027E0000B400BB1012000E00020704770B502469D
:1027F000002400230025002040F66A16B14200D1D3
:1028000000BFC1F3421501F01F03012606FA03F3CE
:10281000012D02D19689334006E0022D02D1168A9D
:10282000334001E0968A33400C12012606FA04F484
:102830001688344013B10CB1012000E0002070BDB7
:10284000F0B50346002400260025002040F66A1754
:10285000B94200D100BF1846C1F3421401F01F066F
:10286000012707FA06F5012C01D10C3004E0022CF7
:1028700001D1103000E014301AB107682F4307600F
:1028800002E00768AF430760F0BD00002DE9FF4795
:1028900005460E460024A14600BFA046B08900B1FF
:1028A00000BF2C8A24F44054F08804432C82AC8965
:1028B00041F20C608443B088318908437189084330
:1028C0000443AC81AC8A24F44074B0890443AC82E4
:1028D0006846FFF7A7FC2048854202D01F48854282
:1028E00002D1DDF80C9001E0DDF80890A88900F431
:1028F000004040B109EBC90000EB09103168490004
:10290000B0FBF1F707E009EBC90000EB09103168F3
:102910008900B0FBF1F76420B7FBF0F00401200957
:10292000642101FB1078A88900F4004040B13220F6
:1029300000EBC800B0FBF1F000F00700044308E032
:10294000322000EB08106421B0FBF1F000F00F0022
:1029500004432C81BDE8FF870010014000140140B2
:1029600001468888C0F308007047C1F308028280DE
:1029700070470FB470B586B006460CA8019073E09E
:102980000B9800785C281CD10B98401C0B900078A9
:102990006E2809D072280FD10D213046FFF7E5FFD0
:1029A0000B98401C0B900BE00A213046FFF7DDFF2F
:1029B0000B98401C0B9003E00B98401C0B9000BF41
:1029C0004BE00B980078252840D10B98401C0B90C9
:1029D0000078642818D0732833D1019810C801906A
:1029E0000BE021783046FFF7C0FF00BF8021304662
:1029F000FFF7EFFE0028F9D0641C20780028F0D102
:102A00000B98401C0B9020E0019820C801900A22EE
:102A100002A9284600F024F902AC0BE021783046E8
:102A2000FFF7A3FF00BF80213046FFF7D2FE00284A
:102A3000F9D0641C20780028F0D10B98401C0B9032
:102A400003E00B98401C0B9000BF06E00B9810F8B9
:102A5000011B0B903046FFF788FF00BF80213046F6
:102A6000FFF7B7FE0028F9D00B980078002887D12F
:102A700006B070BC5DF814FB00BFFEE703B401981C
:102A80004100009850EAC12018BF04204A0D18BF29
:102A900040F0010040F2FF72B2EB515F08BF40F01E
:102AA0000200012808BF052002B0704730380A280C
:102AB00001D2012070470020704700BF704700001E
:102AC00010B504466FF00400FFF798FCE11704EB23
:102AD0005171C1F3C701074A11701046007800EB2D
:102AE0004001C1EBC0104FF6FF7101EAC00002497E
:102AF000088010BD100000201200002070B50446B0
:102B00004FF4077094FBF0F0C6B24FF4077094FBDB
:102B1000F0F100FB114085B205E04FF4077000F0C2
:102B200009F8701EC6B2002EF7D115B1284600F084
:102B300001F870BD0146114A12884A434FF0E02364
:102B40005A6100229A611A46126942F001021A6122
:102B500000BF4FF0E022106900F001021AB100F44A
:102B60008032002AF5D04FF0E022126922F00102F3
:102B70004FF0E0231A6100229A6170471200002092
:102B80002DE9FF4782467B215046FDF7A9FC81468F
:102B9000B9F1000F03D1002004B0BDE8F08724A1F3
:102BA0004846FDF7A7FC06460EB90020F4E70A36B2
:102BB0003A213046FDF7B0FC07460FB90020EBE79D
:102BC0007C1C00E0641C207840B1FDF767FB0068C6
:102BD0002178405C00F001000028F3D1254600E098
:102BE0006D1C287830B1FDF759FB00682978405CEE
:102BF0002028F5D0A54201D10020CDE7002000908B
:102C00000190029003902A1B21466846FDF7AEFC16
:102C10006846FDF758FC8046B8F1000F01DA002045
:102C2000BAE742F20F70804500DDB5E74046B3E7F2
:102C300022706172616D73223A7B000070B50446A8
:102C40000D4600BF80210548FFF7C3FD0028F9D0DD
:102C5000E1B20248FFF789FE204670BD0010014036
:102C6000F0B503460D461646002729460A2E03D026
:102C7000002008702846F0BD33B9302001F8010B60
:102C8000002008702846F6E7002B03DA2D2001F813
:102C9000010B5B4242F210720DE093FBF2F404B9B7
:102CA00037B104F1300001F8010B04FB12330127A6
:102CB0000A2092FBF0F2002AEFDC00200870284680
:102CC000D9E700001CB501212020FFF77BFA012085
:102CD0008DF8040000208DF8060001208DF8070013
:102CE0004FF4C060009002208DF80500694604484A
:102CF000FFF76AF94FF4C0610148FFF7D0F91CBD36
:102D0000001402404FF44070FFF750FAA820FFF77C
:102D1000D7FE4FF4E13000F0C1F84FF4E13000F09D
:102D200065F84FF4E13000F00FF9FFF731FCFFF7E1
:102D3000C9FFFEF7B3FD4FF4FA60FFF7DFFEFEF7C1
:102D400061FD04463DE02CB941F28830FFF7D6FE24
:102D5000FEF758FDFFF70EF91A490880084600886B
:102D600030B10120FFF7BCF9012000F041F905E086
:102D70000120FFF7A1F9002000F03AF90020FFF749
:102D8000C3F94FF47A70FFF7B9FED4B10E4800884A
:102D90003C2816DB0D4801780DA0FEF7F9FE0E4821
:102DA00001780EA0FEF7F4FE0E4890ED000A0EA08A
:102DB000FEF7D8FE0349087800F01AF9002002490E
:102DC0000880C0E738000020280000201400002000
:102DD00074656D70000000001500002068756D6955
:102DE00000000000180000206169720010B588B072
:102DF000044601211020FFF705FA01210846FFF7DC
:102E0000E1F9072209212348FFF726F907220A21C1
:102E10002048FFF721F94FF4C060069002208DF89A
:102E20001D008DF81C0000208DF81E0001208DF87B
:102E30001F0006A91748FFF7C7F825208DF80400E2
:102E400003208DF8050000208DF8060001208DF884
:102E5000070001A8FFF76EF902940020ADF80C00FE
:102E6000ADF80E00ADF81000ADF814000C20ADF870
:102E7000120002A90848FFF709FD012240F225517E
:102E80000548FFF7DDFC01210348FFF796FC08B079
:102E900010BD0000000002400010014010B588B0D5
:102EA000044601214804FFF79DF901210846FFF778
:102EB00089F9072202212248FFF7CEF807220321D1
:102EC0001F48FFF7C9F80C20029002208DF80C0073
:102ED0008DF80D0000208DF80E0001208DF80F00F8
:102EE00002A91748FFF770F826208DF8040001208A
:102EF0008DF8050000208DF8060001208DF80700F0
:102F000001A8FFF717F904940020ADF81400ADF8FC
:102F10001600ADF81800ADF81C000C20ADF81A0032
:102F200004A90848FFF7B2FC012240F225510548E8
:102F3000FFF786FC01210348FFF73FFC08B010BDF6
:102F4000000002400044004010B588B00446012152
:102F50008804FFF747F901210420FFF733F907221E
:102F60000A212148FFF778F807220B211E48FFF7B6
:102F700073F84FF44060029002208DF80D008DF838
:102F80000C0000208DF80E0002A91748FFF71CF86E
:102F900027208DF8040002208DF8050000208DF810
:102FA000060001208DF8070001A8FFF7C3F804947C
:102FB0000020ADF81400ADF81600ADF81800ADF81B
:102FC0001C000C20ADF81A0004A90848FFF75EFCAD
:102FD000012240F225510548FFF732FC0121034848
:102FE000FFF7EBFB08B010BD0008024000480040AE
:102FF00010B5044621460548FFF7B7FC00BF802105
:103000000248FFF7E6FB0028F9D010BD0048004059
:1030100010B500290AD00878002807D00548784460
:10302000FDF7A8FF002801D0002010BD0248784419
:1030300010BD0000760200006E02000010B50029ED
:103040000AD00878002807D005487844FDF792FF99
:10305000002801D0002010BD0248784410BD0000B7
:103060005A030000520300000808A0F500114FEABF
:103070003101704743004FEAD30C4FEA3C0C434008
:103080001FBF40070CF1605113F0FE4F70471CF05A
:10309000006F03D100200CF0004170470CF000439A
:1030A00043EA507010B540EACC0000F00EF800BFC3
:1030B000000000924FEA0001FFF7D6BF4FF0004139
:1030C0004FF00000A1F5002170470EF1020E2EF026
:1030D000030E5EF8044B244204D44FEA4102B2F1DD
:1030E0007F4F11D84FEA4003B3F17F4F0CD80ED178
:1030F0004FEAD07CB2F17F4F0CEB4C0C0CF1020C80
:1031000008BF4CEBD17C04E04FF0080C01E04FEA23
:10311000D17C0CEB4C0324FA03F404F00704B4F163
:10312000040C06D20EEB840CBDE810404CF0010CF0
:103130006047DFE80CF0070802024FF00040A0F5FE
:10314000800010BD0846420018BFD2F1807288BFCF
:1031500000F0004010BD4FF04070E1EE100A7047E3
:10316000FDF7AABB02400000000000A00000000024
:1031700005400000000000C8000000000C400000F6
:103180000000409C00000000194000000020BCBE70
:103190000000000034400000BFC91B8E0000000486
:1031A000B5400000504BCFD06607E2CF01000000D1
:1031B0006C4100003E8251AADFEEA73401000000FE
:1031C000D9420000DCB5A0E23A301F97FFFFFFFFB5
:1031D000B4450000FD25A0C8E9A3C14FFFFFFFFFD4
:1031E000FF3F00000000008000000000FF3F0000E3
:1031F000000000800000000076657273696F6E3D0C
:10320000323031382D31302D3331267265733D70B7
:10321000726F647563747325324633324369554265
:103220003952713425324664657669636573253297
:10323000463430372665743D3139353634393932C4
:103240003030266D6574686F643D73686131267334
:1032500069676E3D305A564A6F6A3377486D5854E5
:103260006250344F526A636F6C6B617659753425C6
:1032700033440000C0330008000000203C00000080
:10328000C4010008FC3300083C0000206C0A000068
:10329000E00100081001000043000000F8FFFFFFFC
:1032A0000040404040404040404041414141414059
:1032B000404040404040404040404040404040400E
:1032C000400502020202020202020202020202029D
:1032D00002202020202020202020200202020202A2
:1032E00002029090909090901010101010101010FA
:1032F0001010101010101010101010100202020206
:103300000202888888888888080808080808080849
:103310000808080808080808080808080202020245
:10332000400000000000000000000000000000005D
:10333000000000000000000000000000000000008D
:10334000000000000000000000000000000000007D
:10335000000000000000000000000000000000006D
:10336000000000000000000000000000000000005D
:10337000000000000000000000000000000000004D
:10338000000000000000000000000000000000003D
:10339000000000000000000000000000000000002D
:1033A000000000001C00000043000000F8FFFFFFC9
:1033B0000C0000000E0000000F0000002E000000B6
:1033C00000000000010203040102030406070809CB
:1033D00000000000000000000000000000000000ED
:1033E00000000000000000000000000000000000DD
:0C33F000000000000000000000000000D1
:040000050800018965
:00000001FF
